{
  "_format": "hh-sol-artifact-1",
  "contractName": "FoodTraceability",
  "sourceName": "contracts/FoodTraceability.sol",
  "abi": [
    {
      "inputs": [
        {
          "internalType": "address",
          "name": "owner_",
          "type": "address"
        }
      ],
      "stateMutability": "nonpayable",
      "type": "constructor"
    },
    {
      "inputs": [
        {
          "internalType": "address",
          "name": "owner",
          "type": "address"
        }
      ],
      "name": "OwnableInvalidOwner",
      "type": "error"
    },
    {
      "inputs": [
        {
          "internalType": "address",
          "name": "account",
          "type": "address"
        }
      ],
      "name": "OwnableUnauthorizedAccount",
      "type": "error"
    },
    {
      "anonymous": false,
      "inputs": [
        {
          "indexed": false,
          "internalType": "string",
          "name": "batchId",
          "type": "string"
        },
        {
          "indexed": true,
          "internalType": "address",
          "name": "creator",
          "type": "address"
        },
        {
          "indexed": true,
          "internalType": "address",
          "name": "custodian",
          "type": "address"
        },
        {
          "indexed": false,
          "internalType": "string",
          "name": "cid",
          "type": "string"
        },
        {
          "indexed": false,
          "internalType": "bytes32",
          "name": "dataHash",
          "type": "bytes32"
        }
      ],
      "name": "BatchCreated",
      "type": "event"
    },
    {
      "anonymous": false,
      "inputs": [
        {
          "indexed": false,
          "internalType": "string",
          "name": "batchId",
          "type": "string"
        },
        {
          "indexed": false,
          "internalType": "enum FoodTraceability.BatchState",
          "name": "newState",
          "type": "uint8"
        }
      ],
      "name": "BatchStateChanged",
      "type": "event"
    },
    {
      "anonymous": false,
      "inputs": [
        {
          "indexed": false,
          "internalType": "string",
          "name": "batchId",
          "type": "string"
        },
        {
          "indexed": true,
          "internalType": "address",
          "name": "from",
          "type": "address"
        },
        {
          "indexed": true,
          "internalType": "address",
          "name": "to",
          "type": "address"
        }
      ],
      "name": "CustodyTransferred",
      "type": "event"
    },
    {
      "anonymous": false,
      "inputs": [
        {
          "indexed": false,
          "internalType": "string",
          "name": "batchId",
          "type": "string"
        },
        {
          "indexed": true,
          "internalType": "address",
          "name": "actor",
          "type": "address"
        },
        {
          "indexed": false,
          "internalType": "string",
          "name": "eventType",
          "type": "string"
        },
        {
          "indexed": false,
          "internalType": "string",
          "name": "cid",
          "type": "string"
        },
        {
          "indexed": false,
          "internalType": "bytes32",
          "name": "dataHash",
          "type": "bytes32"
        }
      ],
      "name": "EventAppended",
      "type": "event"
    },
    {
      "anonymous": false,
      "inputs": [
        {
          "indexed": true,
          "internalType": "address",
          "name": "previousOwner",
          "type": "address"
        },
        {
          "indexed": true,
          "internalType": "address",
          "name": "newOwner",
          "type": "address"
        }
      ],
      "name": "OwnershipTransferred",
      "type": "event"
    },
    {
      "anonymous": false,
      "inputs": [
        {
          "indexed": false,
          "internalType": "string",
          "name": "batchId",
          "type": "string"
        },
        {
          "indexed": false,
          "internalType": "bool",
          "name": "recalled",
          "type": "bool"
        },
        {
          "indexed": false,
          "internalType": "string",
          "name": "reason",
          "type": "string"
        }
      ],
      "name": "RecallStatusChanged",
      "type": "event"
    },
    {
      "anonymous": false,
      "inputs": [
        {
          "indexed": true,
          "internalType": "address",
          "name": "account",
          "type": "address"
        },
        {
          "indexed": false,
          "internalType": "enum FoodTraceability.Role",
          "name": "role",
          "type": "uint8"
        }
      ],
      "name": "RoleUpdated",
      "type": "event"
    },
    {
      "inputs": [
        {
          "internalType": "address",
          "name": "newAdmin",
          "type": "address"
        }
      ],
      "name": "addAdmin",
      "outputs": [],
      "stateMutability": "nonpayable",
      "type": "function"
    },
    {
      "inputs": [
        {
          "internalType": "address",
          "name": "",
          "type": "address"
        }
      ],
      "name": "admins",
      "outputs": [
        {
          "internalType": "bool",
          "name": "",
          "type": "bool"
        }
      ],
      "stateMutability": "view",
      "type": "function"
    },
    {
      "inputs": [
        {
          "internalType": "string",
          "name": "batchId",
          "type": "string"
        },
        {
          "internalType": "string",
          "name": "eventType",
          "type": "string"
        },
        {
          "internalType": "string",
          "name": "cid",
          "type": "string"
        },
        {
          "internalType": "bytes32",
          "name": "dataHash",
          "type": "bytes32"
        }
      ],
      "name": "appendEvent",
      "outputs": [],
      "stateMutability": "nonpayable",
      "type": "function"
    },
    {
      "inputs": [
        {
          "internalType": "bytes32",
          "name": "batchId",
          "type": "bytes32"
        },
        {
          "internalType": "uint8",
          "name": "eventType",
          "type": "uint8"
        },
        {
          "internalType": "bytes32",
          "name": "eventHash",
          "type": "bytes32"
        }
      ],
      "name": "appendEvent",
      "outputs": [],
      "stateMutability": "nonpayable",
      "type": "function"
    },
    {
      "inputs": [
        {
          "internalType": "bytes32",
          "name": "batchId",
          "type": "bytes32"
        },
        {
          "internalType": "uint256",
          "name": "index",
          "type": "uint256"
        }
      ],
      "name": "batchEvents",
      "outputs": [
        {
          "internalType": "bytes32",
          "name": "",
          "type": "bytes32"
        }
      ],
      "stateMutability": "view",
      "type": "function"
    },
    {
      "inputs": [
        {
          "internalType": "string",
          "name": "batchId",
          "type": "string"
        }
      ],
      "name": "closeBatch",
      "outputs": [],
      "stateMutability": "nonpayable",
      "type": "function"
    },
    {
      "inputs": [
        {
          "internalType": "string",
          "name": "batchId",
          "type": "string"
        },
        {
          "internalType": "address",
          "name": "firstCustodian",
          "type": "address"
        },
        {
          "internalType": "string",
          "name": "cid",
          "type": "string"
        },
        {
          "internalType": "bytes32",
          "name": "dataHash",
          "type": "bytes32"
        }
      ],
      "name": "createBatch",
      "outputs": [],
      "stateMutability": "nonpayable",
      "type": "function"
    },
    {
      "inputs": [
        {
          "internalType": "address",
          "name": "user",
          "type": "address"
        }
      ],
      "name": "disableParticipant",
      "outputs": [],
      "stateMutability": "nonpayable",
      "type": "function"
    },
    {
      "inputs": [],
      "name": "getBatchCount",
      "outputs": [
        {
          "internalType": "uint256",
          "name": "",
          "type": "uint256"
        }
      ],
      "stateMutability": "view",
      "type": "function"
    },
    {
      "inputs": [
        {
          "internalType": "string",
          "name": "batchId",
          "type": "string"
        }
      ],
      "name": "getBatchState",
      "outputs": [
        {
          "internalType": "enum FoodTraceability.BatchState",
          "name": "",
          "type": "uint8"
        }
      ],
      "stateMutability": "view",
      "type": "function"
    },
    {
      "inputs": [
        {
          "internalType": "string",
          "name": "batchId",
          "type": "string"
        }
      ],
      "name": "getBatchSummary",
      "outputs": [
        {
          "components": [
            {
              "internalType": "string",
              "name": "batchId",
              "type": "string"
            },
            {
              "internalType": "address",
              "name": "creator",
              "type": "address"
            },
            {
              "internalType": "address",
              "name": "currentCustodian",
              "type": "address"
            },
            {
              "internalType": "bool",
              "name": "exists",
              "type": "bool"
            },
            {
              "internalType": "string",
              "name": "recallReason",
              "type": "string"
            },
            {
              "internalType": "uint256",
              "name": "createdAt",
              "type": "uint256"
            },
            {
              "internalType": "enum FoodTraceability.BatchState",
              "name": "state",
              "type": "uint8"
            }
          ],
          "internalType": "struct FoodTraceability.Batch",
          "name": "summary",
          "type": "tuple"
        },
        {
          "components": [
            {
              "internalType": "string",
              "name": "eventType",
              "type": "string"
            },
            {
              "internalType": "address",
              "name": "actor",
              "type": "address"
            },
            {
              "internalType": "string",
              "name": "cid",
              "type": "string"
            },
            {
              "internalType": "bytes32",
              "name": "dataHash",
              "type": "bytes32"
            },
            {
              "internalType": "uint256",
              "name": "timestamp",
              "type": "uint256"
            }
          ],
          "internalType": "struct FoodTraceability.EventRecord[]",
          "name": "events",
          "type": "tuple[]"
        }
      ],
      "stateMutability": "view",
      "type": "function"
    },
    {
      "inputs": [
        {
          "internalType": "string",
          "name": "batchId",
          "type": "string"
        }
      ],
      "name": "getCurrentCustodian",
      "outputs": [
        {
          "internalType": "address",
          "name": "",
          "type": "address"
        }
      ],
      "stateMutability": "view",
      "type": "function"
    },
    {
      "inputs": [
        {
          "internalType": "string",
          "name": "batchId",
          "type": "string"
        },
        {
          "internalType": "uint256",
          "name": "index",
          "type": "uint256"
        }
      ],
      "name": "getEvent",
      "outputs": [
        {
          "components": [
            {
              "internalType": "string",
              "name": "eventType",
              "type": "string"
            },
            {
              "internalType": "address",
              "name": "actor",
              "type": "address"
            },
            {
              "internalType": "string",
              "name": "cid",
              "type": "string"
            },
            {
              "internalType": "bytes32",
              "name": "dataHash",
              "type": "bytes32"
            },
            {
              "internalType": "uint256",
              "name": "timestamp",
              "type": "uint256"
            }
          ],
          "internalType": "struct FoodTraceability.EventRecord",
          "name": "",
          "type": "tuple"
        }
      ],
      "stateMutability": "view",
      "type": "function"
    },
    {
      "inputs": [],
      "name": "getOwner",
      "outputs": [
        {
          "internalType": "address",
          "name": "",
          "type": "address"
        }
      ],
      "stateMutability": "view",
      "type": "function"
    },
    {
      "inputs": [
        {
          "internalType": "address",
          "name": "account",
          "type": "address"
        }
      ],
      "name": "getRole",
      "outputs": [
        {
          "internalType": "enum FoodTraceability.Role",
          "name": "",
          "type": "uint8"
        }
      ],
      "stateMutability": "view",
      "type": "function"
    },
    {
      "inputs": [
        {
          "internalType": "string",
          "name": "batchId",
          "type": "string"
        }
      ],
      "name": "isRecalled",
      "outputs": [
        {
          "internalType": "bool",
          "name": "",
          "type": "bool"
        }
      ],
      "stateMutability": "view",
      "type": "function"
    },
    {
      "inputs": [
        {
          "internalType": "string",
          "name": "batchId",
          "type": "string"
        }
      ],
      "name": "markBatchSold",
      "outputs": [],
      "stateMutability": "nonpayable",
      "type": "function"
    },
    {
      "inputs": [],
      "name": "owner",
      "outputs": [
        {
          "internalType": "address",
          "name": "",
          "type": "address"
        }
      ],
      "stateMutability": "view",
      "type": "function"
    },
    {
      "inputs": [
        {
          "internalType": "address",
          "name": "addr",
          "type": "address"
        }
      ],
      "name": "participants",
      "outputs": [
        {
          "internalType": "bool",
          "name": "enabled",
          "type": "bool"
        },
        {
          "internalType": "uint8",
          "name": "role",
          "type": "uint8"
        }
      ],
      "stateMutability": "view",
      "type": "function"
    },
    {
      "inputs": [
        {
          "internalType": "address",
          "name": "user",
          "type": "address"
        },
        {
          "internalType": "uint8",
          "name": "role",
          "type": "uint8"
        }
      ],
      "name": "registerParticipant",
      "outputs": [],
      "stateMutability": "nonpayable",
      "type": "function"
    },
    {
      "inputs": [
        {
          "internalType": "address",
          "name": "",
          "type": "address"
        }
      ],
      "name": "registered",
      "outputs": [
        {
          "internalType": "bool",
          "name": "",
          "type": "bool"
        }
      ],
      "stateMutability": "view",
      "type": "function"
    },
    {
      "inputs": [
        {
          "internalType": "address",
          "name": "admin",
          "type": "address"
        }
      ],
      "name": "removeAdmin",
      "outputs": [],
      "stateMutability": "nonpayable",
      "type": "function"
    },
    {
      "inputs": [],
      "name": "renounceOwnership",
      "outputs": [],
      "stateMutability": "nonpayable",
      "type": "function"
    },
    {
      "inputs": [
        {
          "internalType": "address",
          "name": "",
          "type": "address"
        }
      ],
      "name": "roles",
      "outputs": [
        {
          "internalType": "enum FoodTraceability.Role",
          "name": "",
          "type": "uint8"
        }
      ],
      "stateMutability": "view",
      "type": "function"
    },
    {
      "inputs": [
        {
          "internalType": "string",
          "name": "batchId",
          "type": "string"
        },
        {
          "internalType": "string",
          "name": "reason",
          "type": "string"
        }
      ],
      "name": "setRecall",
      "outputs": [],
      "stateMutability": "nonpayable",
      "type": "function"
    },
    {
      "inputs": [
        {
          "internalType": "address",
          "name": "account",
          "type": "address"
        },
        {
          "internalType": "enum FoodTraceability.Role",
          "name": "role",
          "type": "uint8"
        }
      ],
      "name": "setRole",
      "outputs": [],
      "stateMutability": "nonpayable",
      "type": "function"
    },
    {
      "inputs": [],
      "name": "totalBatches",
      "outputs": [
        {
          "internalType": "uint256",
          "name": "",
          "type": "uint256"
        }
      ],
      "stateMutability": "view",
      "type": "function"
    },
    {
      "inputs": [
        {
          "internalType": "string",
          "name": "batchId",
          "type": "string"
        },
        {
          "internalType": "address",
          "name": "newCustodian",
          "type": "address"
        }
      ],
      "name": "transferCustody",
      "outputs": [],
      "stateMutability": "nonpayable",
      "type": "function"
    },
    {
      "inputs": [
        {
          "internalType": "address",
          "name": "newOwner",
          "type": "address"
        }
      ],
      "name": "transferOwner",
      "outputs": [],
      "stateMutability": "nonpayable",
      "type": "function"
    },
    {
      "inputs": [
        {
          "internalType": "address",
          "name": "newOwner",
          "type": "address"
        }
      ],
      "name": "transferOwnership",
      "outputs": [],
      "stateMutability": "nonpayable",
      "type": "function"
    }
  ],
  "bytecode": "0x60806040523480156200001157600080fd5b5060405162002b4f38038062002b4f8339810160408190526200003491620000c7565b806001600160a01b0381166200006457604051631e4fbdf760e01b81526000600482015260240160405180910390fd5b6200006f8162000077565b5050620000f9565b600080546001600160a01b038381166001600160a01b0319831681178455604051919092169283917f8be0079c531659141344cd1fd0a4f28419497f9722a3daafe3b4186f6b6457e09190a35050565b600060208284031215620000da57600080fd5b81516001600160a01b0381168114620000f257600080fd5b9392505050565b612a4680620001096000396000f3fe608060405234801561001057600080fd5b50600436106101d95760003560e01c80636f5c148e1161010457806399374642116100a2578063bb41110311610071578063bb41110314610451578063bcf337b914610464578063c4a8a67014610477578063f2fde38b1461049757600080fd5b806399374642146103f0578063a8b12f5c14610413578063a8fabfa514610426578063b2dd5c071461042e57600080fd5b8063743078ad116100de578063743078ad146103ab5780637772c9a1146103be578063893d20e8146103df5780638da5cb5b146103df57600080fd5b80636f5c148e1461037d5780637048027514610390578063715018a6146103a357600080fd5b8063429b62e51161017c5780634fb2e45d1161014b5780634fb2e45d1461033b578063571c3e601461034e57806369ff6abb146103615780636dcd62951461036a57600080fd5b8063429b62e5146102b857806344276733146102db57806346d07e2614610307578063479a4f071461031a57600080fd5b806310b78e3f116101b857806310b78e3f1461024f5780631785f53c146102625780631ad74d43146102755780631f82b0251461029857600080fd5b8062cbaf4e146101de57806309e69ede146101f35780630e0668c214610224575b600080fd5b6101f16101ec366004611fe6565b6104aa565b005b610206610201366004612044565b610598565b60408051921515835260ff9091166020830152015b60405180910390f35b610237610232366004611fe6565b6105df565b6040516001600160a01b03909116815260200161021b565b6101f161025d36600461205f565b610611565b6101f1610270366004612044565b610776565b610288610283366004611fe6565b61079f565b604051901515815260200161021b565b6102ab6102a6366004611fe6565b6107df565b60405161021b9190612143565b6102886102c6366004612044565b60036020526000908152604090205460ff1681565b6102ab6102e9366004612044565b6001600160a01b031660009081526001602052604090205460ff1690565b6101f1610315366004611fe6565b610809565b61032d610328366004612156565b6109f9565b60405190815260200161021b565b6101f1610349366004612044565b610a86565b6101f161035c366004612178565b610a9a565b61032d60065481565b6101f16103783660046121b3565b610b89565b6101f161038b36600461221f565b610d50565b6101f161039e366004612044565b610f9a565b6101f161100e565b6101f16103b9366004612044565b611022565b6103d16103cc366004611fe6565b611096565b60405161021b929190612374565b6000546001600160a01b0316610237565b6102ab6103fe366004612044565b60016020526000908152604090205460ff1681565b6101f1610421366004612429565b611453565b60065461032d565b61028861043c366004612044565b60026020526000908152604090205460ff1681565b6101f161045f36600461245c565b6115a1565b6101f16104723660046124e8565b61189f565b61048a61048536600461251d565b611a90565b60405161021b9190612569565b6101f16104a5366004612044565b611cad565b6104b2611ce8565b60006104be8383611d15565b6000818152600460205260408120919250600582015460ff1660038111156104e8576104e8612102565b1461050e5760405162461bcd60e51b81526004016105059061257c565b60405180910390fd5b60058101805460ff19166003179055604080518082018252600681526510d313d4d15160d21b6020808301919091528251908101909252600080835261055692859291611db9565b7f64f383b8ebebed6d8b8c1254a07d678ba19edc58328671d3481847880942f9048484600360405161058a939291906125cf565b60405180910390a150505050565b6001600160a01b0381166000908152600260209081526040808320546001909252822054829160ff908116911660038111156105d6576105d6612102565b91509150915091565b6000806105ec8484611d15565b6000908152600460205260409020600201546001600160a01b03169150505b92915050565b600061061d8888611d15565b6000818152600460205260408120919250600582015460ff16600381111561064757610647612102565b146106645760405162461bcd60e51b81526004016105059061257c565b61066e8133611e6a565b6106a85760405162461bcd60e51b815260206004820152600b60248201526a1b9bdd08185b1b1bddd95960aa1b6044820152606401610505565b61071e8288888080601f01602080910402602001604051908101604052809392919081815260200183838082843760009201919091525050604080516020601f8c018190048102820181019092528a815292508a9150899081908401838280828437600092019190915250899250611db9915050565b336001600160a01b03167f7f34a66ec704bb3d785d7a1b8243fbdacd5f034d3c80f7e66364a46a94372b0f8a8a8a8a8a8a8a60405161076397969594939291906125fc565b60405180910390a2505050505050505050565b61077e611ce8565b6001600160a01b03166000908152600360205260409020805460ff19169055565b6000806107ac8484611d15565b9050600260008281526004602052604090206005015460ff1660038111156107d6576107d6612102565b14949350505050565b6000806107ec8484611d15565b60009081526004602052604090206005015460ff16949350505050565b818160006108178383611d15565b6000818152600460205260409020600201549091506001600160a01b031633146108735760405162461bcd60e51b815260206004820152600d60248201526c3737ba1031bab9ba37b234b0b760991b6044820152606401610505565b60006108b486868080601f016020809104026020016040519081016040528093929190818152602001838380828437600092019190915250611ed492505050565b6000818152600460205260408120919250600582015460ff1660038111156108de576108de612102565b146108fb5760405162461bcd60e51b81526004016105059061257c565b60023360009081526001602052604090205460ff16600381111561092157610921612102565b1461096e5760405162461bcd60e51b815260206004820152601b60248201527f6f6e6c792072657461696c65722063616e206d61726b20736f6c6400000000006044820152606401610505565b60058101805460ff19166001179055604080518082018252600481526314d3d31160e21b602080830191909152825190810190925260008083526109b492859291611db9565b7f64f383b8ebebed6d8b8c1254a07d678ba19edc58328671d3481847880942f904878760016040516109e8939291906125cf565b60405180910390a150505050505050565b6000828152600560205260408120548210610a4c5760405162461bcd60e51b8152602060048201526013602482015272696e646578206f7574206f6620626f756e647360681b6044820152606401610505565b6000838152600560205260409020805483908110610a6c57610a6c61264d565b906000526020600020906005020160030154905092915050565b610a8e611ce8565b610a9781611cad565b50565b33610aad6000546001600160a01b031690565b6001600160a01b03161480610ad157503360009081526003602052604090205460ff165b610aed5760405162461bcd60e51b815260040161050590612663565b6001600160a01b03821660009081526001602081905260409091208054839260ff1990911690836003811115610b2557610b25612102565b02179055506001600160a01b03821660008181526002602052604090819020805460ff19166001179055517fc3f8f61911a1537261f77e2703626e158e299a98e341024ecaa26bbd1d884c6490610b7d908490612143565b60405180910390a25050565b6003803360009081526001602052604090205460ff166003811115610bb057610bb0612102565b14610bed5760405162461bcd60e51b815260206004820152600d60248201526c1c9bdb19481c995c5d5a5c9959609a1b6044820152606401610505565b6000610bf98686611d15565b6000818152600460205260408120919250600582015460ff166003811115610c2357610c23612102565b14610c405760405162461bcd60e51b81526004016105059061257c565b83610c7f5760405162461bcd60e51b815260206004820152600f60248201526e1c99585cdbdb881c995c5d5a5c9959608a1b6044820152606401610505565b60058101805460ff1916600217905560038101610c9d85878361272c565b50610cdc8260405180604001604052806008815260200167149150d05313115160c21b815250604051806020016040528060008152506000801b611db9565b7f6a97bcf8476504800a1de0dc062efd0cc50f1f67588f8419c7effd5efc934fd0878760018888604051610d149594939291906127ed565b60405180910390a17f64f383b8ebebed6d8b8c1254a07d678ba19edc58328671d3481847880942f904878760026040516109e8939291906125cf565b82826000610d5e8383611d15565b6000818152600460205260409020600201549091506001600160a01b03163314610dba5760405162461bcd60e51b815260206004820152600d60248201526c3737ba1031bab9ba37b234b0b760991b6044820152606401610505565b6001600160a01b038416610e045760405162461bcd60e51b815260206004820152601160248201527034b73b30b634b21031bab9ba37b234b0b760791b6044820152606401610505565b610e0d84611edf565b610e595760405162461bcd60e51b815260206004820152601c60248201527f637573746f6469616e206d75737420626520617574686f72697a6564000000006044820152606401610505565b6000610e9a87878080601f016020809104026020016040519081016040528093929190818152602001838380828437600092019190915250611ed492505050565b6000818152600460205260408120919250600582015460ff166003811115610ec457610ec4612102565b14610ee15760405162461bcd60e51b81526004016105059061257c565b6002810180546001600160a01b038881166001600160a01b031983161790925560408051808201825260088152672a2920a729a322a960c11b602080830191909152825190810190925260008083529390921692610f429286929091611db9565b866001600160a01b0316816001600160a01b03167f7fc70ede9a8a9960e2e93000354bb546cc9206bf59f2a62291d8abea2db4a7c58b8b604051610f87929190612828565b60405180910390a3505050505050505050565b610fa2611ce8565b6001600160a01b038116610fea5760405162461bcd60e51b815260206004820152600f60248201526e696e76616c6964206164647265737360881b6044820152606401610505565b6001600160a01b03166000908152600360205260409020805460ff19166001179055565b611016611ce8565b6110206000611f4d565b565b336110356000546001600160a01b031690565b6001600160a01b0316148061105957503360009081526003602052604090205460ff165b6110755760405162461bcd60e51b815260040161050590612663565b6001600160a01b03166000908152600260205260409020805460ff19169055565b6110d26040805160e0810182526060808252600060208301819052928201839052808201839052608082015260a081018290529060c082015290565b606060006110e08585611d15565b60008181526004602052604090819020815160e0810190925280549293509182908290829061110e906126a1565b80601f016020809104026020016040519081016040528092919081815260200182805461113a906126a1565b80156111875780601f1061115c57610100808354040283529160200191611187565b820191906000526020600020905b81548152906001019060200180831161116a57829003601f168201915b505050918352505060018201546001600160a01b03908116602083015260028301549081166040830152600160a01b900460ff16151560608201526003820180546080909201916111d7906126a1565b80601f0160208091040260200160405190810160405280929190818152602001828054611203906126a1565b80156112505780601f1061122557610100808354040283529160200191611250565b820191906000526020600020905b81548152906001019060200180831161123357829003601f168201915b505050918352505060048201546020820152600582015460409091019060ff16600381111561128157611281612102565b600381111561129257611292612102565b9052506000838152600560209081526040808320805482518185028101850190935280835294985090939092909184015b8282101561144457838290600052602060002090600502016040518060a00160405290816000820180546112f6906126a1565b80601f0160208091040260200160405190810160405280929190818152602001828054611322906126a1565b801561136f5780601f106113445761010080835404028352916020019161136f565b820191906000526020600020905b81548152906001019060200180831161135257829003601f168201915b505050918352505060018201546001600160a01b0316602082015260028201805460409092019161139f906126a1565b80601f01602080910402602001604051908101604052809291908181526020018280546113cb906126a1565b80156114185780601f106113ed57610100808354040283529160200191611418565b820191906000526020600020905b8154815290600101906020018083116113fb57829003601f168201915b5050505050815260200160038201548152602001600482015481525050815260200190600101906112c3565b50505050925050509250929050565b336114666000546001600160a01b031690565b6001600160a01b0316148061148a57503360009081526003602052604090205460ff165b6114a65760405162461bcd60e51b815260040161050590612663565b600360ff821611156114e95760405162461bcd60e51b815260206004820152600c60248201526b696e76616c696420726f6c6560a01b6044820152606401610505565b8060ff1660038111156114fe576114fe612102565b6001600160a01b03831660009081526001602081905260409091208054909160ff199091169083600381111561153657611536612102565b02179055506001600160a01b0382166000818152600260205260409020805460ff191660011790557fc3f8f61911a1537261f77e2703626e158e299a98e341024ecaa26bbd1d884c6460ff8316600381111561159457611594612102565b604051610b7d9190612143565b6000803360009081526001602052604090205460ff1660038111156115c8576115c8612102565b146116055760405162461bcd60e51b815260206004820152600d60248201526c1c9bdb19481c995c5d5a5c9959609a1b6044820152606401610505565b856116455760405162461bcd60e51b815260206004820152601060248201526f18985d18da1259081c995c5d5a5c995960821b6044820152606401610505565b6001600160a01b0385166116905760405162461bcd60e51b815260206004820152601260248201527118dd5cdd1bd91a585b881c995c5d5a5c995960721b6044820152606401610505565b61169985611edf565b6116e55760405162461bcd60e51b815260206004820152601c60248201527f637573746f6469616e206d75737420626520617574686f72697a6564000000006044820152606401610505565b600061172688888080601f016020809104026020016040519081016040528093929190818152602001838380828437600092019190915250611ed492505050565b6000818152600460205260409020600281015491925090600160a01b900460ff16156117835760405162461bcd60e51b815260206004820152600c60248201526b62617463682065786973747360a01b6044820152606401610505565b8061178f898b8361272c565b50600181810180546001600160a01b031916331790556002820180546001600160a81b0319166001600160a01b038a1617600160a01b17905542600483015560058201805460ff19169055600680546000906117ec90849061283c565b92505081905550611854826040518060400160405280600681526020016543524541544560d01b81525088888080601f0160208091040260200160405190810160405280939291908181526020018383808284376000920191909152508a9250611db9915050565b866001600160a01b0316336001600160a01b03167f2129be3292a8823d051a05cad0557657b23bdb4f37a26648141c103b40f2744d8b8b8a8a8a604051610f8795949392919061285d565b600083815260046020526040902060020154600160a01b900460ff166118f75760405162461bcd60e51b815260206004820152600d60248201526c6261746368206d697373696e6760981b6044820152606401610505565b600083815260046020526040812090600582015460ff16600381111561191f5761191f612102565b1461193c5760405162461bcd60e51b81526004016105059061257c565b6119468133611e6a565b6119805760405162461bcd60e51b815260206004820152600b60248201526a1b9bdd08185b1b1bddd95960aa1b6044820152606401610505565b60608360ff166000036119b0575060408051808201909152600681526543726561746560d01b6020820152611a30565b8360ff166001036119e15750604080518082019091526009815268151c985b9cdc1bdc9d60ba1b6020820152611a30565b8360ff16600203611a105750604080518082019091526007815266125b9cdc1958dd60ca1b6020820152611a30565b506040805180820190915260078152662ab735b737bbb760c91b60208201525b611a4b85826040518060200160405280600081525086611db9565b60405133907f7f34a66ec704bb3d785d7a1b8243fbdacd5f034d3c80f7e66364a46a94372b0f90611a8190859085908890612897565b60405180910390a25050505050565b6040805160a081018252606080825260006020830181905292820181905281018290526080810182905290611ac58585611d15565b6000818152600560205260409020549091508310611b1b5760405162461bcd60e51b8152602060048201526013602482015272696e646578206f7574206f6620626f756e647360681b6044820152606401610505565b6000818152600560205260409020805484908110611b3b57611b3b61264d565b90600052602060002090600502016040518060a0016040529081600082018054611b64906126a1565b80601f0160208091040260200160405190810160405280929190818152602001828054611b90906126a1565b8015611bdd5780601f10611bb257610100808354040283529160200191611bdd565b820191906000526020600020905b815481529060010190602001808311611bc057829003601f168201915b505050918352505060018201546001600160a01b03166020820152600282018054604090920191611c0d906126a1565b80601f0160208091040260200160405190810160405280929190818152602001828054611c39906126a1565b8015611c865780601f10611c5b57610100808354040283529160200191611c86565b820191906000526020600020905b815481529060010190602001808311611c6957829003601f168201915b50505050508152602001600382015481526020016004820154815250509150509392505050565b611cb5611ce8565b6001600160a01b038116611cdf57604051631e4fbdf760e01b815260006004820152602401610505565b610a9781611f4d565b6000546001600160a01b031633146110205760405163118cdaa760e01b8152336004820152602401610505565b600080611d5784848080601f016020809104026020016040519081016040528093929190818152602001838380828437600092019190915250611ed492505050565b600081815260046020526040902060020154909150600160a01b900460ff16611db25760405162461bcd60e51b815260206004820152600d60248201526c6261746368206d697373696e6760981b6044820152606401610505565b9392505050565b6000848152600560208181526040808420815160a081018352888152338185015291820187905260608201869052426080830152805460018101825590855291909320835191909202909101908190611e129082612950565b5060208201516001820180546001600160a01b0319166001600160a01b0390921691909117905560408201516002820190611e4d9082612950565b506060820151816003015560808201518160040155505050505050565b6001600160a01b03811660009081526001602052604081205460ff166003816003811115611e9a57611e9a612102565b03611ea957600191505061060b565b60028401546001600160a01b038481169116148015611ecc5750611ecc83611edf565b949350505050565b805160209091012090565b6001600160a01b03811660009081526001602052604081205460ff1681816003811115611f0e57611f0e612102565b1480611f2b57506001816003811115611f2957611f29612102565b145b80611db257506002816003811115611f4557611f45612102565b149392505050565b600080546001600160a01b038381166001600160a01b0319831681178455604051919092169283917f8be0079c531659141344cd1fd0a4f28419497f9722a3daafe3b4186f6b6457e09190a35050565b60008083601f840112611faf57600080fd5b50813567ffffffffffffffff811115611fc757600080fd5b602083019150836020828501011115611fdf57600080fd5b9250929050565b60008060208385031215611ff957600080fd5b823567ffffffffffffffff81111561201057600080fd5b61201c85828601611f9d565b90969095509350505050565b80356001600160a01b038116811461203f57600080fd5b919050565b60006020828403121561205657600080fd5b611db282612028565b60008060008060008060006080888a03121561207a57600080fd5b873567ffffffffffffffff8082111561209257600080fd5b61209e8b838c01611f9d565b909950975060208a01359150808211156120b757600080fd5b6120c38b838c01611f9d565b909750955060408a01359150808211156120dc57600080fd5b506120e98a828b01611f9d565b989b979a50959894979596606090950135949350505050565b634e487b7160e01b600052602160045260246000fd5b60048110610a9757634e487b7160e01b600052602160045260246000fd5b61213f81612118565b9052565b6020810161215083612118565b91905290565b6000806040838503121561216957600080fd5b50508035926020909101359150565b6000806040838503121561218b57600080fd5b61219483612028565b91506020830135600481106121a857600080fd5b809150509250929050565b600080600080604085870312156121c957600080fd5b843567ffffffffffffffff808211156121e157600080fd5b6121ed88838901611f9d565b9096509450602087013591508082111561220657600080fd5b5061221387828801611f9d565b95989497509550505050565b60008060006040848603121561223457600080fd5b833567ffffffffffffffff81111561224b57600080fd5b61225786828701611f9d565b909450925061226a905060208501612028565b90509250925092565b6000815180845260005b818110156122995760208185018101518683018201520161227d565b506000602082860101526020601f19601f83011685010191505092915050565b6000815160a084526122ce60a0850182612273565b905060018060a01b036020840151166020850152604083015184820360408601526122f98282612273565b91505060608301516060850152608083015160808501528091505092915050565b60008282518085526020808601955060208260051b8401016020860160005b8481101561236757601f198684030189526123558383516122b9565b98840198925090830190600101612339565b5090979650505050505050565b604081526000835160e06040840152612391610120840182612273565b9050602085015160018060a01b03808216606086015280604088015116608086015250506060850151151560a08401526080850151603f198483030160c08501526123dc8282612273565b91505060a085015160e084015260c08501516123fc610100850182612136565b50828103602084015261240f818561231a565b95945050505050565b803560ff8116811461203f57600080fd5b6000806040838503121561243c57600080fd5b61244583612028565b915061245360208401612418565b90509250929050565b6000806000806000806080878903121561247557600080fd5b863567ffffffffffffffff8082111561248d57600080fd5b6124998a838b01611f9d565b90985096508691506124ad60208a01612028565b955060408901359150808211156124c357600080fd5b506124d089828a01611f9d565b979a9699509497949695606090950135949350505050565b6000806000606084860312156124fd57600080fd5b8335925061250d60208501612418565b9150604084013590509250925092565b60008060006040848603121561253257600080fd5b833567ffffffffffffffff81111561254957600080fd5b61255586828701611f9d565b909790965060209590950135949350505050565b602081526000611db260208301846122b9565b60208082526010908201526f6261746368206e6f742061637469766560801b604082015260600190565b81835281816020850137506000828201602090810191909152601f909101601f19169091010190565b6040815260006125e36040830185876125a6565b90506125ee83612118565b826020830152949350505050565b60808152600061261060808301898b6125a6565b828103602084015261262381888a6125a6565b905082810360408401526126388186886125a6565b91505082606083015298975050505050505050565b634e487b7160e01b600052603260045260246000fd5b6020808252600e908201526d18591b5a5b881c995c5d5a5c995960921b604082015260600190565b634e487b7160e01b600052604160045260246000fd5b600181811c908216806126b557607f821691505b6020821081036126d557634e487b7160e01b600052602260045260246000fd5b50919050565b601f821115612727576000816000526020600020601f850160051c810160208610156127045750805b601f850160051c820191505b8181101561272357828155600101612710565b5050505b505050565b67ffffffffffffffff8311156127445761274461268b565b6127588361275283546126a1565b836126db565b6000601f84116001811461278c57600085156127745750838201355b600019600387901b1c1916600186901b1783556127e6565b600083815260209020601f19861690835b828110156127bd578685013582556020948501946001909201910161279d565b50868210156127da5760001960f88860031b161c19848701351681555b505060018560011b0183555b5050505050565b6060815260006128016060830187896125a6565b8515156020840152828103604084015261281c8185876125a6565b98975050505050505050565b602081526000611ecc6020830184866125a6565b8082018082111561060b57634e487b7160e01b600052601160045260246000fd5b6060815260006128716060830187896125a6565b82810360208401526128848186886125a6565b9150508260408301529695505050505050565b6080815260008085546128a9816126a1565b80608086015260a06001808416600081146128cb57600181146128e757612919565b60ff19851660a089015260a084151560051b8901019550612919565b8a60005260208060002060005b8681101561290f5781548b82018701529084019082016128f4565b8a0160a001975050505b505050505082810360208401526129308186612273565b838103604085015260008152606090930193909352506020019392505050565b815167ffffffffffffffff81111561296a5761296a61268b565b61297e8161297884546126a1565b846126db565b602080601f8311600181146129b3576000841561299b5750858301515b600019600386901b1c1916600185901b178555612723565b600085815260208120601f198616915b828110156129e2578886015182559484019460019091019084016129c3565b5085821015612a005787850151600019600388901b60f8161c191681555b5050505050600190811b0190555056fea26469706673582212206ac30b34f8a6fed00710e83915b15a4a3ca7dbc6c821813b8e2c5a3733fca62564736f6c63430008180033",
  "linkReferences": {},
  "deployedLinkReferences": {}
}